{
  "contractName": "SimpleStorage",
  "abi": [
    {
      "inputs": [],
      "payable": false,
      "stateMutability": "nonpayable",
      "type": "constructor"
    },
    {
      "constant": false,
      "inputs": [
        {
          "internalType": "string",
          "name": "_name",
          "type": "string"
        }
      ],
      "name": "setname",
      "outputs": [],
      "payable": false,
      "stateMutability": "nonpayable",
      "type": "function"
    },
    {
      "constant": true,
      "inputs": [],
      "name": "getname",
      "outputs": [
        {
          "internalType": "string",
          "name": "name",
          "type": "string"
        }
      ],
      "payable": false,
      "stateMutability": "pure",
      "type": "function"
    },
    {
      "constant": false,
      "inputs": [
        {
          "internalType": "string",
          "name": "_dept",
          "type": "string"
        }
      ],
      "name": "setdept",
      "outputs": [],
      "payable": false,
      "stateMutability": "nonpayable",
      "type": "function"
    },
    {
      "constant": true,
      "inputs": [],
      "name": "getdept",
      "outputs": [
        {
          "internalType": "string",
          "name": "dept",
          "type": "string"
        }
      ],
      "payable": false,
      "stateMutability": "pure",
      "type": "function"
    },
    {
      "constant": true,
      "inputs": [
        {
          "internalType": "uint256",
          "name": "_phonenumber",
          "type": "uint256"
        }
      ],
      "name": "getphonenumber",
      "outputs": [
        {
          "internalType": "uint256",
          "name": "",
          "type": "uint256"
        }
      ],
      "payable": false,
      "stateMutability": "pure",
      "type": "function"
    },
    {
      "constant": true,
      "inputs": [
        {
          "internalType": "string",
          "name": "_addresshome",
          "type": "string"
        }
      ],
      "name": "getaddresshome",
      "outputs": [
        {
          "internalType": "string",
          "name": "",
          "type": "string"
        }
      ],
      "payable": false,
      "stateMutability": "pure",
      "type": "function"
    },
    {
      "constant": true,
      "inputs": [
        {
          "internalType": "string",
          "name": "_emailid",
          "type": "string"
        }
      ],
      "name": "getemailid",
      "outputs": [
        {
          "internalType": "string",
          "name": "",
          "type": "string"
        }
      ],
      "payable": false,
      "stateMutability": "pure",
      "type": "function"
    },
    {
      "constant": true,
      "inputs": [
        {
          "internalType": "uint256",
          "name": "_aadhar",
          "type": "uint256"
        }
      ],
      "name": "getaadhar",
      "outputs": [
        {
          "internalType": "uint256",
          "name": "",
          "type": "uint256"
        }
      ],
      "payable": false,
      "stateMutability": "pure",
      "type": "function"
    }
  ],
  "bytecode": "0x608060405234801561001057600080fd5b506000600281905550600060058190555061073b806100306000396000f3fe608060405234801561001057600080fd5b50600436106100885760003560e01c8063c6ea59b91161005b578063c6ea59b914610433578063cf1f2686146104b6578063fb903872146104f8578063fd98309f146105b357610088565b806303053eea1461008d5780631d3b593c146101c15780631e002ac2146102445780632cefeb0714610378575b600080fd5b610146600480360360208110156100a357600080fd5b81019080803590602001906401000000008111156100c057600080fd5b8201836020820111156100d257600080fd5b803590602001918460018302840111640100000000831117156100f457600080fd5b91908080601f016020809104026020016040519081016040528093929190818152602001838380828437600081840152601f19601f8201169050808301925050505050505091929192905050506105f5565b6040518080602001828103825283818151815260200191508051906020019080838360005b8381101561018657808201518184015260208101905061016b565b50505050905090810190601f1680156101b35780820380516001836020036101000a031916815260200191505b509250505060405180910390f35b6101c96105ff565b6040518080602001828103825283818151815260200191508051906020019080838360005b838110156102095780820151818401526020810190506101ee565b50505050905090810190601f1680156102365780820380516001836020036101000a031916815260200191505b509250505060405180910390f35b6102fd6004803603602081101561025a57600080fd5b810190808035906020019064010000000081111561027757600080fd5b82018360208201111561028957600080fd5b803590602001918460018302840111640100000000831117156102ab57600080fd5b91908080601f016020809104026020016040519081016040528093929190818152602001838380828437600081840152601f19601f820116905080830192505050505050509192919290505050610607565b6040518080602001828103825283818151815260200191508051906020019080838360005b8381101561033d578082015181840152602081019050610322565b50505050905090810190601f16801561036a5780820380516001836020036101000a031916815260200191505b509250505060405180910390f35b6104316004803603602081101561038e57600080fd5b81019080803590602001906401000000008111156103ab57600080fd5b8201836020820111156103bd57600080fd5b803590602001918460018302840111640100000000831117156103df57600080fd5b91908080601f016020809104026020016040519081016040528093929190818152602001838380828437600081840152601f19601f820116905080830192505050505050509192919290505050610611565b005b61043b61062b565b6040518080602001828103825283818151815260200191508051906020019080838360005b8381101561047b578082015181840152602081019050610460565b50505050905090810190601f1680156104a85780820380516001836020036101000a031916815260200191505b509250505060405180910390f35b6104e2600480360360208110156104cc57600080fd5b8101908080359060200190929190505050610633565b6040518082815260200191505060405180910390f35b6105b16004803603602081101561050e57600080fd5b810190808035906020019064010000000081111561052b57600080fd5b82018360208201111561053d57600080fd5b8035906020019184600183028401116401000000008311171561055f57600080fd5b91908080601f016020809104026020016040519081016040528093929190818152602001838380828437600081840152601f19601f82011690508083019250505050505050919291929050505061063d565b005b6105df600480360360208110156105c957600080fd5b8101908080359060200190929190505050610657565b6040518082815260200191505060405180910390f35b6060819050919050565b606080905090565b6060819050919050565b8060009080519060200190610627929190610661565b5050565b606080905090565b6000819050919050565b8060019080519060200190610653929190610661565b5050565b6000819050919050565b828054600181600116156101000203166002900490600052602060002090601f016020900481019282601f106106a257805160ff19168380011785556106d0565b828001600101855582156106d0579182015b828111156106cf5782518255916020019190600101906106b4565b5b5090506106dd91906106e1565b5090565b61070391905b808211156106ff5760008160009055506001016106e7565b5090565b9056fea265627a7a72315820e213b46082f90a64b3feb4a13654c8b6992ca222619100f26bbff41e50dd491f64736f6c63430005100032",
  "source": "pragma solidity >=0.4.22 <0.9.0;\r\n\r\n\r\ncontract SimpleStorage{\r\n    string name;\r\n    string dept;\r\n    uint phonenumber;\r\n    string addresshome;\r\n    string emailid;\r\n    uint aadhar;\r\n    string ipfshash1;\r\n    string ipfshash2;\r\n    string ipfshash3;\r\n    string ipfshash4;\r\n    constructor() public {\r\n        phonenumber=0;\r\n        aadhar=0;\r\n        \r\n    }\r\n    \r\n    function setname(string memory _name) public {\r\n        name=_name;\r\n    }\r\n    \r\n    function getname() public pure returns(string memory name){\r\n        return name;\r\n    }\r\n    function setdept(string memory _dept) public {\r\n        dept=_dept;\r\n    }\r\n    function getdept() public pure returns(string memory dept){\r\n        return dept;\r\n    }\r\n    function getphonenumber(uint _phonenumber) public pure returns(uint){\r\n        return _phonenumber;\r\n    }\r\n    \r\n    function getaddresshome(string memory _addresshome) public pure returns(string memory){\r\n        return _addresshome;\r\n    }\r\n    \r\n    function getemailid(string memory _emailid) public pure returns(string memory){\r\n        return _emailid;\r\n    }\r\n    \r\n    function getaadhar(uint _aadhar) public pure returns(uint){\r\n        return _aadhar;\r\n    }\r\n}",
  "sourcePath": "C:/Users/user/Desktop/Projects/smartcontract/blockchain/contracts/SimpleStorage.sol",
  "compiler": {
    "name": "solc",
    "version": "0.5.16+commit.9c3226ce.Emscripten.clang"
  },
  "schemaVersion": "3.4.1",
  "updatedAt": "2021-06-05T15:13:19.071Z",
  "networkType": "ethereum",
  "devdoc": {
    "methods": {}
  },
  "userdoc": {
    "methods": {}
  }
}