{
  "contractName": "SimpleStorage",
  "abi": [
    {
      "inputs": [],
      "payable": false,
      "stateMutability": "nonpayable",
      "type": "constructor"
    },
    {
      "constant": false,
      "inputs": [
        {
          "internalType": "string",
          "name": "_name",
          "type": "string"
        }
      ],
      "name": "setname",
      "outputs": [],
      "payable": false,
      "stateMutability": "nonpayable",
      "type": "function"
    },
    {
      "constant": true,
      "inputs": [],
      "name": "getname",
      "outputs": [
        {
          "internalType": "string",
          "name": "",
          "type": "string"
        }
      ],
      "payable": false,
      "stateMutability": "view",
      "type": "function"
    },
    {
      "constant": false,
      "inputs": [
        {
          "internalType": "string",
          "name": "_dept",
          "type": "string"
        }
      ],
      "name": "setdept",
      "outputs": [],
      "payable": false,
      "stateMutability": "nonpayable",
      "type": "function"
    },
    {
      "constant": true,
      "inputs": [],
      "name": "getdept",
      "outputs": [
        {
          "internalType": "string",
          "name": "",
          "type": "string"
        }
      ],
      "payable": false,
      "stateMutability": "view",
      "type": "function"
    },
    {
      "constant": false,
      "inputs": [
        {
          "internalType": "uint256",
          "name": "_phonenumber",
          "type": "uint256"
        }
      ],
      "name": "setphonenumber",
      "outputs": [],
      "payable": false,
      "stateMutability": "nonpayable",
      "type": "function"
    },
    {
      "constant": true,
      "inputs": [],
      "name": "getphonenumber",
      "outputs": [
        {
          "internalType": "uint256",
          "name": "",
          "type": "uint256"
        }
      ],
      "payable": false,
      "stateMutability": "view",
      "type": "function"
    },
    {
      "constant": false,
      "inputs": [
        {
          "internalType": "string",
          "name": "_addresshome",
          "type": "string"
        }
      ],
      "name": "setaddresshome",
      "outputs": [],
      "payable": false,
      "stateMutability": "nonpayable",
      "type": "function"
    },
    {
      "constant": true,
      "inputs": [],
      "name": "getaddresshome",
      "outputs": [
        {
          "internalType": "string",
          "name": "",
          "type": "string"
        }
      ],
      "payable": false,
      "stateMutability": "view",
      "type": "function"
    },
    {
      "constant": false,
      "inputs": [
        {
          "internalType": "string",
          "name": "_emailid",
          "type": "string"
        }
      ],
      "name": "setemailid",
      "outputs": [],
      "payable": false,
      "stateMutability": "nonpayable",
      "type": "function"
    },
    {
      "constant": true,
      "inputs": [],
      "name": "getemailid",
      "outputs": [
        {
          "internalType": "string",
          "name": "",
          "type": "string"
        }
      ],
      "payable": false,
      "stateMutability": "view",
      "type": "function"
    },
    {
      "constant": false,
      "inputs": [
        {
          "internalType": "uint256",
          "name": "_aadhar",
          "type": "uint256"
        }
      ],
      "name": "setaadhar",
      "outputs": [],
      "payable": false,
      "stateMutability": "nonpayable",
      "type": "function"
    },
    {
      "constant": true,
      "inputs": [],
      "name": "getaadhar",
      "outputs": [
        {
          "internalType": "uint256",
          "name": "",
          "type": "uint256"
        }
      ],
      "payable": false,
      "stateMutability": "view",
      "type": "function"
    }
  ],
  "bytecode": "0x608060405234801561001057600080fd5b5060006002819055506000600581905550610a3b806100306000396000f3fe608060405234801561001057600080fd5b50600436106100b45760003560e01c806358268a5c1161007157806358268a5c1461038157806382dd5a731461039f5780639aa270fc1461045a578063c6ea59b9146104dd578063e1e2504f14610560578063fb9038721461058e576100b4565b80630dd91ea3146100b95780631d3b593c1461013c57806327b24c38146101bf5780632cefeb07146101ed57806333e333b7146102a85780633ab72cee146102c6575b600080fd5b6100c1610649565b6040518080602001828103825283818151815260200191508051906020019080838360005b838110156101015780820151818401526020810190506100e6565b50505050905090810190601f16801561012e5780820380516001836020036101000a031916815260200191505b509250505060405180910390f35b6101446106eb565b6040518080602001828103825283818151815260200191508051906020019080838360005b83811015610184578082015181840152602081019050610169565b50505050905090810190601f1680156101b15780820380516001836020036101000a031916815260200191505b509250505060405180910390f35b6101eb600480360360208110156101d557600080fd5b810190808035906020019092919050505061078d565b005b6102a66004803603602081101561020357600080fd5b810190808035906020019064010000000081111561022057600080fd5b82018360208201111561023257600080fd5b8035906020019184600183028401116401000000008311171561025457600080fd5b91908080601f016020809104026020016040519081016040528093929190818152602001838380828437600081840152601f19601f820116905080830192505050505050509192919290505050610797565b005b6102b06107b1565b6040518082815260200191505060405180910390f35b61037f600480360360208110156102dc57600080fd5b81019080803590602001906401000000008111156102f957600080fd5b82018360208201111561030b57600080fd5b8035906020019184600183028401116401000000008311171561032d57600080fd5b91908080601f016020809104026020016040519081016040528093929190818152602001838380828437600081840152601f19601f8201169050808301925050505050505091929192905050506107bb565b005b6103896107d5565b6040518082815260200191505060405180910390f35b610458600480360360208110156103b557600080fd5b81019080803590602001906401000000008111156103d257600080fd5b8201836020820111156103e457600080fd5b8035906020019184600183028401116401000000008311171561040657600080fd5b91908080601f016020809104026020016040519081016040528093929190818152602001838380828437600081840152601f19601f8201169050808301925050505050505091929192905050506107df565b005b6104626107f9565b6040518080602001828103825283818151815260200191508051906020019080838360005b838110156104a2578082015181840152602081019050610487565b50505050905090810190601f1680156104cf5780820380516001836020036101000a031916815260200191505b509250505060405180910390f35b6104e561089b565b6040518080602001828103825283818151815260200191508051906020019080838360005b8381101561052557808201518184015260208101905061050a565b50505050905090810190601f1680156105525780820380516001836020036101000a031916815260200191505b509250505060405180910390f35b61058c6004803603602081101561057657600080fd5b810190808035906020019092919050505061093d565b005b610647600480360360208110156105a457600080fd5b81019080803590602001906401000000008111156105c157600080fd5b8201836020820111156105d357600080fd5b803590602001918460018302840111640100000000831117156105f557600080fd5b91908080601f016020809104026020016040519081016040528093929190818152602001838380828437600081840152601f19601f820116905080830192505050505050509192919290505050610947565b005b606060038054600181600116156101000203166002900480601f0160208091040260200160405190810160405280929190818152602001828054600181600116156101000203166002900480156106e15780601f106106b6576101008083540402835291602001916106e1565b820191906000526020600020905b8154815290600101906020018083116106c457829003601f168201915b5050505050905090565b606060018054600181600116156101000203166002900480601f0160208091040260200160405190810160405280929190818152602001828054600181600116156101000203166002900480156107835780601f1061075857610100808354040283529160200191610783565b820191906000526020600020905b81548152906001019060200180831161076657829003601f168201915b5050505050905090565b8060028190555050565b80600090805190602001906107ad929190610961565b5050565b6000600554905090565b80600390805190602001906107d1929190610961565b5050565b6000600254905090565b80600490805190602001906107f5929190610961565b5050565b606060048054600181600116156101000203166002900480601f0160208091040260200160405190810160405280929190818152602001828054600181600116156101000203166002900480156108915780601f1061086657610100808354040283529160200191610891565b820191906000526020600020905b81548152906001019060200180831161087457829003601f168201915b5050505050905090565b606060008054600181600116156101000203166002900480601f0160208091040260200160405190810160405280929190818152602001828054600181600116156101000203166002900480156109335780601f1061090857610100808354040283529160200191610933565b820191906000526020600020905b81548152906001019060200180831161091657829003601f168201915b5050505050905090565b8060058190555050565b806001908051906020019061095d929190610961565b5050565b828054600181600116156101000203166002900490600052602060002090601f016020900481019282601f106109a257805160ff19168380011785556109d0565b828001600101855582156109d0579182015b828111156109cf5782518255916020019190600101906109b4565b5b5090506109dd91906109e1565b5090565b610a0391905b808211156109ff5760008160009055506001016109e7565b5090565b9056fea265627a7a72315820a8789604b3a1cdd132b92dd02e2f43d2071145c8de79faa72dac48031fef71d164736f6c63430005100032",
  "source": "pragma solidity >=0.4.22 <0.9.0;\r\n\r\n\r\ncontract SimpleStorage{\r\n    string name;\r\n    string dept;\r\n    uint phonenumber;\r\n    string addresshome;\r\n    string emailid;\r\n    uint aadhar;\r\n    string ipfshash1;\r\n    string ipfshash2;\r\n    string ipfshash3;\r\n    string ipfshash4;\r\n    constructor() public {\r\n        phonenumber=0;\r\n        aadhar=0;\r\n        \r\n    }\r\n    \r\n    function setname(string memory _name) public {\r\n        name=_name;\r\n    }\r\n    \r\n    function getname() public view returns(string memory){\r\n        return name;\r\n    }\r\n    function setdept(string memory _dept) public {\r\n        dept=_dept;\r\n    }\r\n    function getdept() public view returns(string memory){\r\n        return dept;\r\n    }\r\n    function setphonenumber(uint _phonenumber) public{\r\n        phonenumber=_phonenumber;\r\n    }\r\n\r\n    function getphonenumber() public view returns(uint){\r\n        return phonenumber;\r\n    }\r\n    \r\n    function setaddresshome(string memory _addresshome) public {\r\n        addresshome=_addresshome;\r\n    }\r\n    function getaddresshome() public view returns(string memory ){\r\n        return addresshome;\r\n    }\r\n    function setemailid(string memory _emailid) public {\r\n        emailid=_emailid;\r\n    }\r\n    function getemailid() public view returns(string memory){\r\n        return emailid;\r\n    }\r\n    \r\n    function setaadhar(uint _aadhar) public {\r\n        aadhar=_aadhar;\r\n    }\r\n    function getaadhar() public view returns(uint){\r\n        return aadhar;\r\n    }\r\n}",
  "sourcePath": "C:/Users/user/Desktop/Projects/smartcontract/blockchain/contracts/SimpleStorage.sol",
  "compiler": {
    "name": "solc",
    "version": "0.5.16+commit.9c3226ce.Emscripten.clang"
  },
  "schemaVersion": "3.4.1",
  "updatedAt": "2021-07-01T11:50:06.707Z",
  "networkType": "ethereum",
  "devdoc": {
    "methods": {}
  },
  "userdoc": {
    "methods": {}
  }
}