{
  "contractName": "SimpleStorage",
  "abi": [
    {
      "inputs": [],
      "payable": false,
      "stateMutability": "nonpayable",
      "type": "constructor"
    },
    {
      "constant": false,
      "inputs": [
        {
          "internalType": "string",
          "name": "_name",
          "type": "string"
        }
      ],
      "name": "setname",
      "outputs": [],
      "payable": false,
      "stateMutability": "nonpayable",
      "type": "function"
    },
    {
      "constant": true,
      "inputs": [],
      "name": "getname",
      "outputs": [
        {
          "internalType": "string",
          "name": "name",
          "type": "string"
        }
      ],
      "payable": false,
      "stateMutability": "pure",
      "type": "function"
    },
    {
      "constant": false,
      "inputs": [
        {
          "internalType": "string",
          "name": "_dept",
          "type": "string"
        }
      ],
      "name": "setdept",
      "outputs": [],
      "payable": false,
      "stateMutability": "nonpayable",
      "type": "function"
    },
    {
      "constant": true,
      "inputs": [],
      "name": "getdept",
      "outputs": [
        {
          "internalType": "string",
          "name": "dept",
          "type": "string"
        }
      ],
      "payable": false,
      "stateMutability": "pure",
      "type": "function"
    },
    {
      "constant": false,
      "inputs": [
        {
          "internalType": "uint256",
          "name": "_phonenumber",
          "type": "uint256"
        }
      ],
      "name": "setphonenumber",
      "outputs": [],
      "payable": false,
      "stateMutability": "nonpayable",
      "type": "function"
    },
    {
      "constant": true,
      "inputs": [],
      "name": "getphonenumber",
      "outputs": [
        {
          "internalType": "uint256",
          "name": "phonenumber",
          "type": "uint256"
        }
      ],
      "payable": false,
      "stateMutability": "pure",
      "type": "function"
    },
    {
      "constant": false,
      "inputs": [
        {
          "internalType": "string",
          "name": "_addresshome",
          "type": "string"
        }
      ],
      "name": "setaddresshome",
      "outputs": [],
      "payable": false,
      "stateMutability": "nonpayable",
      "type": "function"
    },
    {
      "constant": true,
      "inputs": [],
      "name": "getaddresshome",
      "outputs": [
        {
          "internalType": "string",
          "name": "addresshome",
          "type": "string"
        }
      ],
      "payable": false,
      "stateMutability": "pure",
      "type": "function"
    },
    {
      "constant": false,
      "inputs": [
        {
          "internalType": "string",
          "name": "_emailid",
          "type": "string"
        }
      ],
      "name": "setemailid",
      "outputs": [],
      "payable": false,
      "stateMutability": "nonpayable",
      "type": "function"
    },
    {
      "constant": true,
      "inputs": [],
      "name": "getemailid",
      "outputs": [
        {
          "internalType": "string",
          "name": "emailid",
          "type": "string"
        }
      ],
      "payable": false,
      "stateMutability": "pure",
      "type": "function"
    },
    {
      "constant": false,
      "inputs": [
        {
          "internalType": "uint256",
          "name": "_aadhar",
          "type": "uint256"
        }
      ],
      "name": "setaadhar",
      "outputs": [],
      "payable": false,
      "stateMutability": "nonpayable",
      "type": "function"
    },
    {
      "constant": true,
      "inputs": [],
      "name": "getaadhar",
      "outputs": [
        {
          "internalType": "uint256",
          "name": "aadhar",
          "type": "uint256"
        }
      ],
      "payable": false,
      "stateMutability": "pure",
      "type": "function"
    }
  ],
  "bytecode": "0x608060405234801561001057600080fd5b506000809050600080905050506106e48061002c6000396000f3fe608060405234801561001057600080fd5b50600436106100b45760003560e01c806358268a5c1161007157806358268a5c1461038157806382dd5a731461039f5780639aa270fc1461045a578063c6ea59b9146104dd578063e1e2504f14610560578063fb9038721461058e576100b4565b80630dd91ea3146100b95780631d3b593c1461013c57806327b24c38146101bf5780632cefeb07146101ed57806333e333b7146102a85780633ab72cee146102c6575b600080fd5b6100c1610649565b6040518080602001828103825283818151815260200191508051906020019080838360005b838110156101015780820151818401526020810190506100e6565b50505050905090810190601f16801561012e5780820380516001836020036101000a031916815260200191505b509250505060405180910390f35b610144610651565b6040518080602001828103825283818151815260200191508051906020019080838360005b83811015610184578082015181840152602081019050610169565b50505050905090810190601f1680156101b15780820380516001836020036101000a031916815260200191505b509250505060405180910390f35b6101eb600480360360208110156101d557600080fd5b8101908080359060200190929190505050610659565b005b6102a66004803603602081101561020357600080fd5b810190808035906020019064010000000081111561022057600080fd5b82018360208201111561023257600080fd5b8035906020019184600183028401116401000000008311171561025457600080fd5b91908080601f016020809104026020016040519081016040528093929190818152602001838380828437600081840152601f19601f820116905080830192505050505050509192919290505050610662565b005b6102b061066b565b6040518082815260200191505060405180910390f35b61037f600480360360208110156102dc57600080fd5b81019080803590602001906401000000008111156102f957600080fd5b82018360208201111561030b57600080fd5b8035906020019184600183028401116401000000008311171561032d57600080fd5b91908080601f016020809104026020016040519081016040528093929190818152602001838380828437600081840152601f19601f820116905080830192505050505050509192919290505050610673565b005b61038961067c565b6040518082815260200191505060405180910390f35b610458600480360360208110156103b557600080fd5b81019080803590602001906401000000008111156103d257600080fd5b8201836020820111156103e457600080fd5b8035906020019184600183028401116401000000008311171561040657600080fd5b91908080601f016020809104026020016040519081016040528093929190818152602001838380828437600081840152601f19601f820116905080830192505050505050509192919290505050610684565b005b61046261068d565b6040518080602001828103825283818151815260200191508051906020019080838360005b838110156104a2578082015181840152602081019050610487565b50505050905090810190601f1680156104cf5780820380516001836020036101000a031916815260200191505b509250505060405180910390f35b6104e5610695565b6040518080602001828103825283818151815260200191508051906020019080838360005b8381101561052557808201518184015260208101905061050a565b50505050905090810190601f1680156105525780820380516001836020036101000a031916815260200191505b509250505060405180910390f35b61058c6004803603602081101561057657600080fd5b810190808035906020019092919050505061069d565b005b610647600480360360208110156105a457600080fd5b81019080803590602001906401000000008111156105c157600080fd5b8201836020820111156105d357600080fd5b803590602001918460018302840111640100000000831117156105f557600080fd5b91908080601f016020809104026020016040519081016040528093929190818152602001838380828437600081840152601f19601f8201169050808301925050505050505091929192905050506106a6565b005b606080905090565b606080905090565b60008190505050565b60608190505050565b600080905090565b60608190505050565b600080905090565b60608190505050565b606080905090565b606080905090565b60008190505050565b6060819050505056fea265627a7a7231582062d1394fe633cd443dd3c82f7642f5173cb6669b3d14cc1c7be5a23785ad905064736f6c63430005100032",
  "source": "pragma solidity >=0.4.22 <0.9.0;\r\n\r\n\r\ncontract SimpleStorage{\r\n    /*string name;\r\n    string dept;\r\n    uint phonenumber;\r\n    string addresshome;\r\n    string emailid;\r\n    uint aadhar;\r\n    string ipfshash1;\r\n    string ipfshash2;\r\n    string ipfshash3;\r\n    string ipfshash4;*/\r\n    constructor() public {\r\n        uint phonenumber=0;\r\n        uint aadhar=0;\r\n        \r\n    }\r\n    \r\n    function setname(string memory _name) public {\r\n        string memory  name=_name;\r\n    }\r\n    \r\n    function getname() public pure returns(string memory name){\r\n        return name;\r\n    }\r\n    function setdept(string memory _dept) public {\r\n        string memory dept=_dept;\r\n    }\r\n    function getdept() public pure returns(string memory dept){\r\n        return dept;\r\n    }\r\n    function setphonenumber(uint _phonenumber) public{\r\n        uint phonenumber=_phonenumber;\r\n    }\r\n\r\n    function getphonenumber() public pure returns(uint phonenumber){\r\n        return phonenumber;\r\n    }\r\n    \r\n    function setaddresshome(string memory _addresshome) public {\r\n        string memory  addresshome=_addresshome;\r\n    }\r\n    function getaddresshome() public pure returns(string memory addresshome){\r\n        return addresshome;\r\n    }\r\n    function setemailid(string memory _emailid) public {\r\n        string memory emailid=_emailid;\r\n    }\r\n    function getemailid() public pure returns(string memory emailid){\r\n        return emailid;\r\n    }\r\n    \r\n    function setaadhar(uint _aadhar) public {\r\n        uint aadhar=_aadhar;\r\n    }\r\n    function getaadhar() public pure returns(uint aadhar){\r\n        return aadhar;\r\n    }\r\n}",
  "sourcePath": "C:/Users/user/Desktop/Projects/smartcontract/blockchain/contracts/SimpleStorage.sol",
  "compiler": {
    "name": "solc",
    "version": "0.5.16+commit.9c3226ce.Emscripten.clang"
  },
  "schemaVersion": "3.4.1",
  "updatedAt": "2021-07-01T05:11:16.224Z",
  "networkType": "ethereum",
  "devdoc": {
    "methods": {}
  },
  "userdoc": {
    "methods": {}
  }
}